:020000040800F2
:1000000000200020D903000825040008250400086A
:1000100000000000000000000000000000000000E0
:10002000000000000000000000000000250400089F
:10003000000000000000000025040008250400085E
:1000400025040008250400082504000825040008EC
:1000500025040008250400082504000825040008DC
:1000600025040008250400082504000825040008CC
:1000700025040008250400082504000825040008BC
:1000800025040008250400080000000025040008DD
:10009000250400082504000825040008250400089C
:1000A000250400082504000825040008250400088C
:1000B00025040008000000002504000800000000DE
:1000C0005FF808F180B582B000AF78600A1CFB1CB5
:1000D0001A70FB1C1B78002B06D0084B074A51698D
:1000E0007A680A435A6106E0044B044A5269796807
:1000F000C9430A405A61BD4602B080BD00100240AB
:1001000080B582B000AF78600A1CFB1C1A70FB1C23
:100110001B78002B06D0084B074A91697A680A437E
:100120009A6106E0044B044A92697968C9430A401F
:100130009A61BD4602B080BD0010024080B584B017
:1001400000AF786039600023FB607B68DB68FB6090
:10015000FB680F4A1340FB603B681A683B681B79D9
:100160005B031A433B689B681A433B68DB681A438E
:100170003B681B691A433B685B691343FA68134386
:10018000FB607B68FA68DA60BD4604B080BDC0469B
:1001900003D2FFFF80B582B000AF78607B68002299
:1001A0001A607B6800221A717B6800229A607B6863
:1001B0000022DA607B6800221A617B6800225A61A3
:1001C000BD4602B080BDC04680B582B000AF786049
:1001D0000A1CFB1C1A70FB1C1B78002B06D07B68CA
:1001E0009B6801221A437B689A6005E07B689B68E4
:1001F00002221A437B689A60BD4602B080BDC046A9
:1002000080B586B000AFF860B9607A6000237B618A
:10021000FB689A6ABB681A43FB689A627B6907228B
:1002200093437B617A697B6813437B61FB687A69DE
:100230005A61BD4606B080BD80B582B000AF78601F
:100240007B689B6804221A437B689A60BD4602B0B3
:1002500080BDC04680B582B000AF78607B681B6C03
:100260009BB2181CBD4602B080BDC04680B584B0AC
:1002700000AF786039600F23FB1800221A7000234A
:10028000BB603A6880235B04134005D07B689B68A1
:100290000D4A1340BB6002E07B681B68BB60BB6813
:1002A0003A68134004D00F23FB1801221A7003E0B0
:1002B0000F23FB1800221A700F23FB181B78181C41
:1002C000BD4604B080BDC046FFFFFFFE90B585B0BF
:1002D00000AF80231B03181C0121FFF7F3FE3B1D19
:1002E000802292001A603B1D01221A713B1D0022E0
:1002F0009A713B1D0022DA713B1D00225A71334A6C
:100300003B1D101C191C00F025FC00F0B5F8304B0B
:10031000181C00F037F92E4BA022012199542C4BC8
:1003200088222C4999502A4B8C21C82252005A50BD
:10033000274B902201219950254B9422022199505C
:10034000234B982203219950214B9C220421995040
:100350001F4B181C00F03EF90F23FB1800221A70E7
:100360001B4B181C00F070F90E23FC18184B181CBE
:1003700000F044FA031C23700E23FB181B78202B7B
:100380000ED00E23FB181B78662B04D10F23FB180D
:1003900000221A7018E00F23FB1801221A70DFE701
:1003A0000F23FB181B78002B07D0084A80239B00E3
:1003B000101C191C00F06EFC06E0044A80239B0010
:1003C000101C191C00F058FCCAE7C0460008004881
:1003D00014000020DC0500000C488546002103E0E5
:1003E0000B4B5B58435004310A480B4B42189A425E
:1003F000F6D30A4A02E0002313600432084B9A4203
:10040000F9D300F0F1FAFFF761FFFEE700200020CA
:10041000581E0008000000201400002014000020D6
:10042000F8000020FEE7000080B500AF104B181C5C
:10043000002100F0B5FC0F4B181CFFF7FDFEC04675
:100440000C4B181C0421FFF711FF031EF8D0C04607
:10045000074B181C00F0B0FC031E632BF8D9054BAA
:10046000181CFFF7F7FE031C181CBD4680BDC046D4
:10047000004001400024014080B58CB000AF8023D3
:100480009B02181C0121FFF71DFE80239B00181CF6
:100490000121FFF735FE80235B02181C0121FFF7C5
:1004A0002FFE2823FB1801221A602823FB180322A1
:1004B0001A712823FB1800229A712823FB180022A6
:1004C000DA712823FB1800225A719023DA052823B9
:1004D000FB18101C191C00F03DFB1023FB18181C06
:1004E000FFF758FE1023FB1800221A711023FB1887
:1004F00000221A611023FB1800229A601023FB18B7
:1005000000221A601A4A1023FB18101C191CFFF74E
:1005100015FE174B181C0121FFF756FE144B181C33
:1005200001210722FFF76CFE3B1D00221A813B1DB3
:1005300000225A803B1D0F4A5A600F4B1B68181C43
:100540000E4900F063FC031C9AB23B1D1A803B1D50
:1005500000229A720A4A3B1D101C191C00F0A8FBCD
:10056000074B181C012100F031FCBD460CB080BDCA
:1005700000240140FFFF00000000002040420F0067
:100580000040014080B582B000AF78607B688C216C
:10059000AF2252005A507B689022022199507B680A
:1005A0009422042199507B689822062199507B68F7
:1005B0009C220A2199507B68A4220A2199507B68C9
:1005C000A822322199507B68AC2201219950BD4666
:1005D00002B080BD80B584B000AF78607B68B8227F
:1005E000002199500023FB600A23FB1800221A8087
:1005F00012E0FFF719FF031C191C7B68AC229B5803
:100600004B431A1CFB689B18FB600A23FB181A88D3
:100610000A23FB1801321A800A23FB181B88084A98
:100620009342E6D9FB68181C064900F0EFFB031C57
:10063000191C7B68B8229950BD4604B080BDC046E5
:100640000F2700001027000090B585B000AF78603C
:100650000F23FB1800221A7019E00F23FB181C78D7
:10066000FFF7E2FE031C191C7B68AC229B584B432E
:100670001A1C7B68B8215B58D11A7B68A200D15044
:100680000F23FB181A780F23FB1801321A700F235F
:10069000FB181B781F2BE0D9BD4605B090BDC046A6
:1006A00080B584B000AF78600023FB600B23FB189B
:1006B00000221A7013E00B23FB181A787B68920053
:1006C000D358DA179B1853401A1CFB689B18FB6021
:1006D0000B23FB181A780B23FB1801321A700B231B
:1006E000FB181B781F2BE6D9FB68181CBD4604B00D
:1006F00080BDC04680B584B000AF78600023FB6049
:100700000B23FB1801221A701BE00B23FB181A782D
:100710007B689200D2580B23FB181B78591E7B680C
:100720008900CB58D31ADA179B1853401A1CFB6860
:100730009B18FB600B23FB181A780B23FB18013264
:100740001A700B23FB181B781F2BDED9FB68181CB3
:10075000BD4604B080BDC04680B584B000AF7860AF
:100760000023FB600B23FB1800221A7030E00B23E0
:10077000FB181A787B689200D358DA179B185340FD
:100780001A1EFB689A420FD90B23FB181A787B6854
:100790009200D358DA179B185340FB600B23FB18C9
:1007A0001A787B68C0215A500B23FB181A780B2348
:1007B000FB1801321A707B6880229A580B23FB18B1
:1007C00019787B688900CB58D2187B6880215A50F1
:1007D0000B23FB181B781F2BC9D97B6880229B58E1
:1007E000002B00DA1F335B11191C7B6880229950A3
:1007F000FB68181CBD4604B080BDC046F0B587B08C
:1008000000AF78607B68181CFFF71EFF7B68181C20
:10081000FFF746FF031CFB60FA68FA23DB009A42ED
:1008200000D8CCE07B68181CFFF764FF031CBB609A
:100830007B68DC229A587B68E0215A507B68D8227A
:100840009A587B68DC215A507B68D4229A587B687E
:10085000D8215A507B68D0229A587B68D4215A50AC
:100860007B68CC229A587B68D0215A507B68C8227A
:100870009A587B68CC215A50BA687B68C8215A5074
:1008800000237B611323FB1800221A7010E013234E
:10089000FB181A787B6832329200D2587B69D318E1
:1008A0007B611323FB181A781323FB1801321A708B
:1008B0001323FB181B78052BE9D97B69181C07212A
:1008C00000F034FB031C7B617B68181CFFF744FFBE
:1008D000031C181C01F050FA031C0C1C181C211CD2
:1008E0003D4A3E4B00F03CFF031C0C1C1D1C261C0B
:1008F0007B68B4229B58181C01F002FA031C0C1CE4
:10090000181C211C364A374B00F02AFF031C0C1C14
:10091000281C311C1A1C231C00F0FAFB031C0C1CA5
:10092000181C211C01F0B6F9011C7B68B4229950F7
:100930007B6884217A695A507B6890229A587B6937
:100940009A4204DD7B68B0226521995424E07B68DB
:1009500094229A587B699A4204DD7B68B0226F2109
:10096000995419E07B6898229A587B699A4204DD71
:100970007B68B022762199540EE07B689C229A58BD
:100980007B699A4204DD7B68B0226821995403E0B8
:100990007B68B022732199547B68A0229B5C002B5A
:1009A00009D07B68B4229A587B688C215B589A42A4
:1009B00001DD66230CE07B68B0229B5C08E07B686D
:1009C000B422002199507B68842200219950202371
:1009D000181CBD4607B0F0BD9A9999999999A93FFD
:1009E000666666666666EE3F80B500AF1B4B1B4AC7
:1009F000126801210A431A60184B184A52681849B4
:100A00000A405A60154B154A126816490A401A6086
:100A1000124B124A126814490A401A600F4B0F4ACF
:100A2000526812490A405A600C4B0C4AD26A0F2194
:100A30008A43DA62094B094A126B0D490A401A636C
:100A4000064B064A526B01218A435A63034B00222C
:100A50009A6000F00FF8BD4680BDC046001002400D
:100A60000CB8FFF8FFFFF6FEFFFFFBFFFFFFC0FF24
:100A7000ACFEFFFF80B582B000AF00237B60002397
:100A80003B60314B304A1268802149020A431A60A8
:100A90002D4B1A6880239B0213403B607B68013317
:100AA0007B603B68002B04D17A68A023DB019A426B
:100AB000EED1254B1A6880239B02134002D00123FC
:100AC0003B6001E000233B603B68012B38D11F4BAA
:100AD00011221A601C4B1C4A52685A601A4B1A4A5F
:100AE00052685A60184B184A526819490A405A60AD
:100AF000154B154A5268882149030A435A60124B24
:100B0000114A1268802149040A431A60C0460E4BFC
:100B10001A6880239B041340F9D00B4B0A4A526891
:100B200003218A435A60084B074A526802210A434C
:100B30005A60C046044B5B680C221340082BF9D165
:100B4000BD4602B080BDC0460010024000200240F9
:100B5000FFFFC0FF80B586B000AF7860396000232A
:100B60007B6100233B610023FB6000237B617CE011
:100B70007B6901229A40131C3B613B681B683A6900
:100B80001340FB60FA683B699A426BD13B681B7962
:100B9000012B03D03B681B79022B34D17B689B6807
:100BA0007A695200111C03228A40D2431A407B68A2
:100BB0009A607B689A683B685B79191C7B695B006B
:100BC00099400B1C1A437B689A607B689B889BB298
:100BD0007A6992B2111C01228A4092B2D24392B237
:100BE00013409AB27B689A807B689B889AB23B6874
:100BF0009B79191C7B699BB299400B1C9BB21343D8
:100C00009AB27B689A807B681B687A695200111CD3
:100C100003228A40D2431A407B681A607B681A68B4
:100C20003B681B79191C7B695B0099400B1C1A43BC
:100C30007B681A607B68DB687A6992B25200032194
:100C400091400A1CD2431A407B68DA607B68DA68FC
:100C50003B68DB79191C7B695B0099400B1C1A43CC
:100C60007B68DA607B6901337B617B690F2B00D87D
:100C70007EE7BD4606B080BD80B582B000AF78602B
:100C80000A1CBB1C1A80BB1C1A887B689A61BD4673
:100C900002B080BD80B582B000AF78600A1CBB1C7A
:100CA0001A807B68BA1C12881A85BD4602B080BDC6
:100CB00080B584B000AF786039600E23FB18002245
:100CC0001A800E23FB187A6812881A807B682D4AD6
:100CD000934208D07A688023DB059A4203D07B6870
:100CE000294A934210D10E23FB180E22BA181288FB
:100CF00070218A431A803B6859880E23FB180E2204
:100D0000BA1812880A431A807B68204A934210D08E
:100D10000E23FB180E22BA1812881D490A401A80A9
:100D20003B6819890E23FB180E22BA1812880A4351
:100D30001A807B680E22BA1812881A803B685A689B
:100D40007B68DA623B681A887B681A857B680D4A83
:100D500093420BD07B680F4A934207D07B680E4AC0
:100D6000934203D07B680D4A934204D13B689B7A3F
:100D70009AB27B681A867B6801229A82BD4604B0CB
:100D800080BDC046002C014000040040001000401F
:100D9000FFFCFFFF004001400044014000480140CB
:100DA00080B582B000AF786039607B683A685A627B
:100DB000BD4602B080BDC04680B582B000AF78604D
:100DC0007B685B6A181CBD4602B080BD80B582B0EE
:100DD00000AF78600A1CFB1C1A70FB1C1B78002BF0
:100DE00008D07B681B889BB2012213439AB27B68B0
:100DF0001A8007E07B681B889BB2012293439AB25A
:100E00007B681A80BD4602B080BDC0460022430800
:100E10008B4274D303098B425FD3030A8B4244D3C2
:100E2000030B8B4228D3030C8B420DD3FF22090204
:100E300012BA030C8B4202D31212090265D0030BC3
:100E40008B4219D300E0090AC30B8B4201D3CB03B9
:100E5000C01A5241830B8B4201D38B03C01A5241FB
:100E6000430B8B4201D34B03C01A5241030B8B42FD
:100E700001D30B03C01A5241C30A8B4201D3CB02E8
:100E8000C01A5241830A8B4201D38B02C01A5241CD
:100E9000430A8B4201D34B02C01A5241030A8B42D0
:100EA00001D30B02C01A5241CDD2C3098B4201D3E8
:100EB000CB01C01A524183098B4201D38B01C01A66
:100EC000524143098B4201D34B01C01A52410309DD
:100ED0008B4201D30B01C01A5241C3088B4201D38C
:100EE000CB00C01A524183088B4201D38B00C01A39
:100EF000524143088B4201D34B00C01A5241411A60
:100F000000D20146524110467047FFE701B500206C
:100F100000F0FCF802BDC0460029F7D003B5FFF78A
:100F200075FF0EBC4243891A1847C04603460B435F
:100F30007FD4002243088B4274D303098B425FD3D2
:100F4000030A8B4244D3030B8B4228D3030C8B42FE
:100F50000DD3FF22090212BA030C8B4202D31212E4
:100F6000090265D0030B8B4219D300E0090AC30BB9
:100F70008B4201D3CB03C01A5241830B8B4201D366
:100F80008B03C01A5241430B8B4201D34B03C01A4F
:100F90005241030B8B4201D30B03C01A5241C30AC7
:100FA0008B4201D3CB02C01A5241830A8B4201D338
:100FB0008B02C01A5241430A8B4201D34B02C01A22
:100FC0005241030A8B4201D30B02C01A5241CDD2C7
:100FD000C3098B4201D3CB01C01A524183098B4212
:100FE00001D38B01C01A524143098B4201D34B01FB
:100FF000C01A524103098B4201D30B01C01A52415E
:10100000C3088B4201D3CB00C01A524183088B42E4
:1010100001D38B00C01A524143088B4201D34B00CD
:10102000C01A5241411A00D201465241104670473F
:101030005DE0CA0F00D04942031000D34042534044
:1010400000229C4603098B422DD3030A8B4212D304
:10105000FC22890112BA030A8B420CD38901921136
:101060008B4208D3890192118B4204D389013AD073
:10107000921100E08909C3098B4201D3CB01C01A48
:10108000524183098B4201D38B01C01A524143095B
:101090008B4201D34B01C01A524103098B4201D349
:1010A0000B01C01A5241C3088B4201D3CB00C01AB6
:1010B000524183088B4201D38B00C01A5241D9D2CE
:1010C00043088B4201D34B00C01A5241411A00D24F
:1010D0000146634652415B10104601D34042002B4B
:1010E00000D54942704763465B1000D3404201B5CA
:1010F000002000F00BF802BD0029F8D003B5FFF77F
:1011000015FF0EBC4243891A1847C0467047C046B7
:10111000F0B5454657464E4694464C000A03C90F63
:10112000E0B488460E1C1903470FC500480A614603
:10113000490F01436046520A1743C0005A00640D2C
:10114000520DDB0F8446984500D1A7E0A01A002875
:1011500000DC01E1002A3DD163460B4300D0D4E01E
:101160006B0700D188E00F232B40042B00D183E0D4
:101170002A1DAA42AD4180236D427F191B043B40CA
:101180004646151C002B00D17CE0CC4B01349C4220
:1011900000D1FDE03A1CCA4BED081A405007640527
:1011A00052020543120B640D002112030B0D1B05A7
:1011B0006405120B1A436308C24CF60714401C4323
:1011C000640064083443281C211C1CBC90469946CA
:1011D000A246F0BDB94B9C42C2D080231B041943E8
:1011E000382800DDECE01F2800DD21E120220E1C64
:1011F0006346121A9640C340334366469640321CFB
:10120000561EB24113430A1CC240EB1A9D42B6411E
:101210001D1CBA1A7642971B3B0200D497E07A0253
:10122000560A002E00D1B6E0301C00F0D7FD031C9A
:10123000083B1F2B00DDB7E09E40371C28262A1CE8
:10124000361AF240161C9D403E439C4200DDB2E03F
:101250001C1B621C1F2A00DDD8E01F23291C1C1B3D
:10126000331CA540A340D1406C1EA541D640194374
:101270000D43371C002473E780231B043B40464684
:1012800000D082E78D4BED0878070543FA089C42B1
:1012900032D012036405120B640D85E7A31A002BEC
:1012A00000DC94E0002A3CD0844A944200D157E705
:1012B000802212041143382B00DC05E163461943F8
:1012C000481E81410022C8B24019A8429B41051C1A
:1012D000D2195B42D7183B0239D5784B01349C4276
:1012E00000D14CE10120764A6B083A40284018436F
:1012F000D5070543570833E72B1C134348D08023F9
:101300001B031A431203120B4EE70138002878D151
:101310006346EE1AB5429B417A1A5B42D71A351CD6
:101320007AE7021C0A4300D11AE7013B002B00D0E8
:10133000F2E04019A8429B41CA195B42D718051C2C
:10134000C9E7131C334300D118E1171C351C46466E
:101350006B0700D007E795E700287AD1621C520599
:10136000520D012A00DCFBE06246AA1A9542B64102
:101370009146781A7242861A320200D493E062468D
:10138000551BAC458041CF1B40423E1A984648E76A
:101390000022002508E7281C00F020FD2030031C57
:1013A000083B1F2B00DC47E7283885402E1C002512
:1013B0009C4200DC4CE7424AE41A1640371CCFE658
:1013C000634619434B1E99410022CBB21DE7002B07
:1013D00000D0F2E0601C43055B0D012B00DCA4E0B3
:1013E000364B984200D121E163465C19AC429B41E7
:1013F000CF195B42FA186408D50725435708041C27
:10140000AEE62E4B9C4200D0EAE6A9E6211C331C36
:101410001F39CB40191C202A00D182E03F231C1B1E
:10142000A64035436E1EB54100270D4300248EE7CC
:10143000031C0E1C203BDE40202874D040231B1AC6
:1014400099400B1C62461343591E8B4100223343C3
:10145000DBE6002C50D0194CA24200D1A8E0802439
:10146000240440422743382800DDD9E01F2800DD4E
:1014700039E120243E1C241AA640B0462E1CA14669
:10148000C640444626434C46A5406C1EA541C74075
:1014900035436046451BCF1BAC45894149427F1A05
:1014A000141C9846B8E64B464D46334300D0B8E688
:1014B0000026002700240025E4E6C046FF070000C0
:1014C000FFFF7FFFFFFF0F801F2B5BDC2022081C2C
:1014D000D21A9040814660469246D8404A46104310
:1014E0008146524660469040021C501E824148464A
:1014F00010430A1CDA40E7E63C1C2C4358D0C0439A
:10150000002851D16046451BAC458041CF1B40426D
:101510003F1A141C98467FE68F4A944200D0CAE6D0
:101520001EE600267DE700238CE73B1C2B43002CA6
:1015300000D0BDE0002B00D1F5E063460B4300D1A5
:101540000EE663465B19AB428041CA194042171848
:101550003A0200D4FCE0814A1D1C17400134FFE52B
:101560003A1C2A43002C51D1002A00D085E0624663
:101570000A4303D00F1C65469846F1E50026002774
:1015800000257FE6181C0A1C2038C240202B00D101
:10159000A7E04020C01A8140081C63461843411E42
:1015A0008841104300228FE66B4CA24200D05AE7DC
:1015B0000F1C6546141C9846D2E5002C3AD1381C05
:1015C000284371D0DB43002B18D0634882426BD094
:1015D000382B00DD9DE01F2B00DDA7E020203C1C08
:1015E000C01A8440A1462C1C8246DC404846044375
:1015F00050468540681E8541DF402543654465456A
:101600009B417F185B42FF18141C64E6002A19D125
:1016100062460A4377D00F1C654698464E4C9FE5BC
:101620003D436F1EBD410027EDB232E7041C002789
:10163000002527E64848824236D0802000045B42DD
:101640000743C5E762460A4349D08024ED0878077E
:10165000FA0824032843224209D0CE08264206D1A4
:1016600062464F07381CD20810439846321CD200FD
:10167000470F1743C500384C72E562460A4300D154
:101680006EE56246AE1AB5429241781A5242821A0B
:10169000100200D455E66246551BAC458041CA1B7A
:1016A0004042171A98465BE50F1C6546141C57E527
:1016B000002B34D063460B4311D08024ED0878070B
:1016C000FA08240328432242D1D0CB082342CED1AA
:1016D00062464F07381CD20810431A1CC7E71E4C3D
:1016E0003EE5002059E7041C3E1C203CE640341C2B
:1016F00020282BD04026301A87403D436F1EBD4125
:1017000000272543C5E680270026FF03124C00254D
:10171000B8E53D436F1EBD410027EDB26EE70F1CDB
:1017200065460D4C1CE50F1C654619E51C1C381C54
:10173000203CE040041C202B0CD04020C31A9F40CA
:101740003D436F1EBD410027254357E70027D4E7DF
:101750001D1CFCE50027F3E7FF070000FFFF7FFFEC
:10176000F0B55F4656464D464446F0B4051C061C8F
:10177000080387B099464F00030BCC0F92469B4657
:101780007F0D019467D06C4B9F4236D080205B4622
:1017900040031843C0006B0F1843684B83469C46B8
:1017A00000239846EE00674400934B4649461D03CC
:1017B000C90F5B0052462D0B5B0D894600D16EE0D0
:1017C0005D498B4264D080205C4940038C460021F7
:1017D0000543ED00500F0543D20063444846FF180F
:1017E0007B1C9A46009B604002900B430F2B00D954
:1017F000ACE053489B00C3589F465B461D4300D056
:1018000082E00823009300239B460233002698467B
:10181000CBE7029B01934346022B59D101240025BB
:101820000026019B1C40444B00212D030A0D12058C
:101830002D0B1543434A1B0515401D436D00E4075E
:101840006D082543301C291C07B03CBC90469946C6
:10185000A246AB46F0BD2B434ED05B46002B00D1D9
:1018600085E1584600F0BAFA021C2823291C9B1A6D
:10187000161C5846D940083EB0400B1CB5400343E7
:101880009B462E1C0023304F0093BF1A98468CE7CE
:10189000514629432ED10025002202219EE75146C0
:1018A000294323D0002D00D154E1281C00F096FAE2
:1018B000031C28215046C91A1A1CC8405146083A30
:1018C000914095400A1C05431F480021C31A85E733
:1018D000032B00D1C2E1012B00D06DE14446019BF6
:1018E00000251C40E4B2002300269DE700250022CD
:1018F000012173E7032171E70423009300239B4632
:1019000001330026984650E70C230093093B984684
:101910004BE7802500242D030026074B84E74B4628
:10192000AB46161C0193884675E7029BAB46161C16
:10193000019388466FE7C046FF07000001FCFFFFE8
:10194000181E0008FFFF0F800DFCFFFF330C36044C
:10195000360C9C46331C140C1204120C534398464C
:10196000634653439946634663430193331C4146A0
:101970006343090C4B445B18994505D9802040020C
:101980008146019949440191190C0391414609048A
:10199000090C1B045B1804932B0C9846331C2D0474
:1019A000290C4B43604600934346654658435E43CB
:1019B000009B4D431B0C9946AE194E448446B542DC
:1019C00003D980235B029946CC44350C2B1C039829
:1019D000634484460593009B36041B041B0CF318D8
:1019E0009C446046039058460504060C280C844627
:1019F0005043351C81466046654344434846000CCD
:101A00008346724314195C44A24203D980225202D5
:101A100093465D44220CAD184A461204120C24046D
:101A20004046A41862464A437143464360460096C6
:101A3000464670438046100C84468844E044414545
:101A400005D9802149028C46009961440091019892
:101A500003998446614499429B415B4299460598AB
:101A6000434684461204120C1B049B1863449C4694
:101A7000AB4683429B4140460A19CC44A24289416D
:101A8000E344CC45B6415C46000C80464942764270
:101A90005B426418334398448C428941AB459B4177
:101AA00049425B4219430D1C009B4544EE187602E7
:101AB000E50D2E43B346049B56021E43731E9E4102
:101AC0005B46D20D324366021643DB010AD5012381
:101AD000334076081E435B46DB071E435B465B08CC
:101AE0009B465746634BFB18002B5ADD720709D003
:101AF0000F223240042A05D0321DB242B64176424E
:101B0000B344161C5A46D20106D55A465A4B1A40BF
:101B100080239346DB00FB18584A934234DD0124AE
:101B2000029B00251C400026554B7DE680205B462D
:101B30000003034208D0054206D105432D032D0BB7
:101B40004C46161C4E4B6FE65D4605432D032D0B90
:101B50004B4B69E6504600F041F9031C2033272B1C
:101B600000DCA6E65546083885400022ACE6281C75
:101B700000F034F9021C2032272A00DC75E6083810
:101B800085400026AB467DE65A46F60852071643C6
:101B90005A4601245502029A5B052D0B5B0D144039
:101BA00042E6384DED1B382D0ADD0124029B00254D
:101BB0001C400026002337E6019B5746029391E71D
:101BC0001F2D25DC304B321C9C466744BE405B46D3
:101BD000BB40371CEA407E1EB74113433B431E1CEB
:101BE0005B46EB401D1C730709D00F233340042BC9
:101BF00005D0331DB342B6417642AD191E1C2B02EF
:101C000020D50124029B00251C40002601230BE661
:101C10005A461E4BDB1BDA40131C202D1CD01C4ADD
:101C200094465A466744BA40171C3E43721E96417A
:101C30001E4307230025334007D00F2300253340E0
:101C4000042BD6D16B076D022D0B0124F6081E4321
:101C5000029B1C400023E7E50027E6E780255B4662
:101C600001242D031D43019B2D0323401C1C2D0B20
:101C7000034BD9E5FF030000FFFFFFFEFE07000056
:101C8000FF07000002FCFFFF1E040000E2FBFFFF55
:101C90003E0400000B0330B5134C1A0B4B00051C1F
:101CA0005B0DC90F0020A34210DD104883420EDCFB
:101CB00080200F4C40030243E41A1F2C0ADD0D481C
:101CC000C31ADA40131C48424340581830BD0A4B2F
:101CD000C818FBE7281CE040084CA44663449A401F
:101CE000131C0343EFE7C046FE0300001D04000081
:101CF0003304000013040000FFFFFF7FEDFBFFFF34
:101D000038B5041E16D0C50F00D04442201C00F088
:101D100065F8174B1B1A0A2821DC021C211C1532FE
:101D200091400A1C0B21081AC4405B052403240BB4
:101D30005B0D03E000250023002400220021101C7D
:101D400024030A0D1205240B14430A4A1B051440F0
:101D50001C436400ED0764082C43211C38BD0B387C
:101D600084405B052403240B5B0D0022E6E7C0469C
:101D70001E040000FFFF0F8010B5041E10D000F0FD
:101D80002DF8144A121A0A281ADC0B23211C1B1ADC
:101D9000D94015300B03520584401B0B520D01E056
:101DA0000022002300211B03201C1C0B0B0D1B0514
:101DB0002343094C1205234013435B00590810BD0F
:101DC000031C0B3B9C40520523031B0B520D0024AC
:101DD000E8E7C0461E040000FFFF0F801C2101231E
:101DE0001B04984201D3000C10391B0A984201D3FE
:101DF000000A08391B09984201D30009043902A2DC
:101E0000105C40187047C046040302020101010142
:101E100000000000000000004C1900082A1900080A
:101E20002A1900081E1900081218000812180008C4
:101E3000121900081E1900081218000812190008CB
:101E4000121800081E1900081618000816180008B5
:081E5000161800082C1B000805
:101E5800006CDC0200000000000000000102030426
:041E68000607080958
:0400000508000000EF
:00000001FF
